:02000002E0001C
:10000000970000009380C00B828000000000000079
:100010006E100E006E100E006E100E00000000003C
:100020006E100E006E100E006E100E006E100E00A0
:100030006E100E006E100E006E100E006E100E0090
:100040006E100E006E100E006E100E007C2B0E0057
:1000500000000000000000000000000000000000A0
:100060000000000000000000000000000000000090
:100070000000000000000000000000000000000080
:100080000000000000000000000000000000000070
:100090000000000000000000000000000000000060
:1000A0000000000000000000000000000000000050
:1000B0000000000000000000000000007370043029
:1000C000370505E013050508930510002320B5004A
:1000D000370500E013050501930530082320B5001E
:1000E000370505E0930500002320B500370505E03E
:1000F00013054506B7256B00938575082320B500C9
:10010000370505E013050506930590002320B5008B
:100110009701F21F938101761721F21F130181EEDF
:100120009302002073A0027D97020000938282ED6B
:100130007390723097120000938282EC7390C27EAB
:1001400073E0C07E971200009382C2E37390523036
:100150009302F00373B0523073E0513073F0023207
:10016000170500001305450A970500009385C5098A
:100170006302B502175600001306C6AB63FCC50048
:100180008322050023A055001305450093854500F3
:10019000E3E8C5FE175500001305C5A99705F21F32
:1001A000938545E61706F21F1306C6EE63FCC500ED
:1001B0008322050023A055001305450093854500C3
:1001C000E3E8C5FE1705F21F1305C5EC93850193FF
:1001D0006378B5002320050013054500E36CB5FEE8
:1001E000EF10804A1735000013056526EF304025D3
:1001F000EF3040291305000093050000EF20704DFB
:040200006F0000008B
:10024000464C41534858495000000000464C415329
:1002500048000000494C4D00574F524B3100000000
:10026000574F524B32000000574F524B33000000A3
:100270004D43415553453A203078256C780D0A009E
:100280004D45504320203A203078256C780D0A00E7
:100290004D5456414C203A203078256C780D0A0098
:1002A00031303A35353A3432000000004F63742063
:1002B00032332032303232004E75636C6569205320
:1002C000444B204275696C642054696D653A202561
:1002D000732C2025730D0A00446F776E6C6F616478
:1002E000204D6F64653A2025730D0A004350552058
:1002F0004672657175656E637920256420487A0DB4
:100300000A00000040020E004C020E0054020E00D3
:1003100058020E0060020E0068020E00000000008D
:1003200000000000002F000000000700070000147C
:100330007F147F1400242A7F2A120062640813238A
:1003400000364955225000000503000000001C2221
:100350004100000041221C000014083E081400085F
:10036000083E0808000000A060000008080808080F
:10037000000060600000002010080402003E5149A7
:10038000453E0000427F4000004261514946002145
:1003900041454B31001814127F100027454545395F
:1003A000003C4A49493000017109050300364949BA
:1003B000493600064949291E000036360000000073
:1003C00056360000000814224100001414141414BE
:1003D0000000412214080002015109060032495967
:1003E000513E007C1211127C007F49494936003E83
:1003F00041414122007F4141221C007F494949413E
:10040000007F09090901003E4149497A007F080837
:10041000087F0000417F4100002040413F01007FF4
:1004200008142241007F40404040007F020C027FC0
:10043000007F0408107F003E4141413E007F0909D2
:100440000906003E4151215E007F091929460046F8
:10045000494949310001017F0101003F4040403FCF
:10046000001F2040201F003F4038403F0063140819
:1004700014630007087008070061514945430000F4
:100480007F41410000552A552A55000041417F0017
:10049000000402010204004040404040000001020C
:1004A0000400002054545478007F484444380038F5
:1004B0004444442000384444487F0038545454187D
:1004C00000087E0901020018A4A4A47C007F08048F
:1004D00004780000447D4000004080847D00007F5F
:1004E000102844000000417F4000007C041804787C
:1004F000007C0804047800384444443800FC242478
:1005000024180018242418FC007C0804040800485F
:100510005454542000043F444020003C4040207C80
:10052000001C2040201C003C4030403C004428106F
:100530002844001CA0A0A07C004464544C44141423
:10054000141414140000000000000000000000005B
:1005500000000000000000F8000000000000003370
:100560003000000000100C06100C06000000000017
:100570000000000040C07840C0784000043F040400
:100580003F040400007088FC08300000001820FFC1
:10059000211E0000F008F000E018000000211C03FC
:1005A0001E211E0000F00888700000001E21232478
:1005B0001927211010160E00000000000000000096
:1005C00000000000000000E0180402000000000726
:1005D0001820400000020418E0000000004020182D
:1005E00007000000404080F0804040000202010F00
:1005F00001020200000000F0000000000101011FE4
:1006000001010100000000000000000080B0700047
:1006100000000000000000000000000000010101D7
:100620000101010100000000000000000030300066
:100630000000000000000000806018040060180640
:100640000100000000E010080810E000000F10207A
:1006500020100F00001010F8000000000020203FC4
:10066000202000000070080808887000003028244E
:1006700022213000003008888848300000182020EF
:1006800020110E000000C02010F800000007042414
:10069000243F240000F80888880808000019212059
:1006A00020110E0000E0108888180000000F1120B3
:1006B00020110E0000380808C83808000000003F6C
:1006C000000000000070880808887000001C2221CB
:1006D00021221C0000E010080810E0000000312278
:1006E00022110F00000000C0C00000000000003018
:1006F000300000000000008000000000000080606A
:1007000000000000000080402010080000010204EA
:1007100008102000404040404040400004040404D1
:10072000040404000008102040800000002010088D
:1007300004020100007048080808F00000000030C2
:1007400036010000C030C828E810E0000718272450
:1007500023140B000000C038E0000000203C2302FE
:100760000227382008F8888888700000203F202061
:1007700020110E00C0300808080838000718202093
:100780002010080008F808080810E000203F20208A
:1007900020100F0008F88888E8081000203F20206B
:1007A0002320180008F88888E8081000203F20005F
:1007B00003000000C0300808083800000718202097
:1007C000221E020008F808000008F808203F210156
:1007D00001213F20000808F8080800000020203F01
:1007E0002020000000000808F8080800C080808071
:1007F0007F00000008F888C028180800203F20016A
:100800002638200008F8080000000000203F2020C3
:100810002020300008F8F800F8F80800203F003FDA
:10082000003F200008F830C00008F808203F2000F2
:1008300007183F00E01008080810E0000F10202003
:1008400020100F0008F808080808F000203F2101D8
:1008500001010000E01008080810E0000F1824242F
:1008600038504F0008F8888888887000203F2000A2
:10087000030C302000708808080838000038202158
:1008800021221C00180808F8080818000000203F62
:100890002000000008F808000008F808001F2020C9
:1008A00020201F000878880000C83808000007389A
:1008B0000E010000F80800F80008F800033C0700EB
:1008C000073C0300081868808068180820302C0353
:1008D000032C30200838C800C83808000000203F2A
:1008E0002000000010080808C83808002038262119
:1008F00020201800000000FE020202000000007F1D
:1009000040404000000C30C000000000000000012A
:100910000638C00000020202FE0000000040404015
:100920007F0000000000040202020400000000003A
:1009300000000000000000000000000080808080B7
:10094000808080800002020400000000000000009F
:100950000000000000008080808000000019242238
:1009600022223F2008F8008080000000003F112074
:1009700020110E000000008080800000000E112079
:1009800020201100000000808088F800000E112057
:1009900020103F200000808080800000001F222265
:1009A00022221300008080F0888888180020203FD1
:1009B000202000000000808080808000006B9494E4
:1009C0009493600008F8008080800000203F2100A0
:1009D00000203F2000809898000000000020203F69
:1009E00020200000000000809898000000C0808057
:1009F000807F000008F8000080808000203F2402F3
:100A00002D302000000808F8000000000020203FE2
:100A1000202000008080808080808000203F200097
:100A20003F20003F8080008080800000203F210028
:100A300000203F200000808080800000001F2020D8
:100A400020201F00808000808000000080FFA12007
:100A500020110E000000008080808000000E112018
:100A600020A0FF80808080008080800020203F21A7
:100A7000200001000000808080808000003324245A
:100A800024241900008080E0808000000000001F06
:100A9000202000008080000000808000001F2020B7
:100AA00020103F20808080000080808000010E3078
:100AB0000806010080800080008080800F300C03D9
:100AC0000C300F0000808000808080000020312EDC
:100AD0000E312000808080000080808080818E70B8
:100AE0001806010000808080808080000021302C6A
:100AF0002221300000000000807C02020000000083
:100B0000003F404000000000FF0000000000000027
:100B1000FF0000000002027C800000000040403F17
:100B200000000000000601010202040400000000B1
:100B300000000000421E0000501E00005E1E00006B
:100B40006C1E00007A1E0000881E0000961E000029
:100B5000A61E0000D61E0000E61E0000F61E0000C5
:100B6000061F0000161F0000261F0000361F000091
:100B7000461F0000783A25642C20793A256420002D
:100B8000773A25642C20683A25642000000102028F
:100B90000303030304040404040404040505050515
:100BA00005050505050505050505050506060606F1
:100BB00006060606060606060606060606060606D5
:100BC00006060606060606060606060607070707C1
:100BD00007070707070707070707070707070707A5
:100BE0000707070707070707070707070707070795
:100BF0000707070707070707070707070707070785
:100C00000707070707070707070707070808080870
:100C10000808080808080808080808080808080854
:100C20000808080808080808080808080808080844
:100C30000808080808080808080808080808080834
:100C40000808080808080808080808080808080824
:100C50000808080808080808080808080808080814
:100C60000808080808080808080808080808080804
:100C700008080808080808080808080808080808F4
:100C80000808080808080808080808080000000004
:100C90000000000000000000000000000000000054
:100CA0000000000000000000000000000000000044
:100CB0000000000000000000000000000000000034
:100CC0000000000000000000000000000000000024
:100CD0000000000000000000000000000000000014
:100CE000000000000000000000000000232D302B59
:100CF00020000000686C4C006566674546470000B0
:100D00003031323334353637383941424344454641
:100D10000000000030313233343536373839616203
:100D200063646566000000006236000078360000EB
:100D300038360000383600003836000038360000FB
:100D400078360000383600003836000038360000AB
:100D500038360000D0370000B6360000A237000059
:100D60003836000038360000003800003836000001
:100D7000B63600003836000038360000AA370000CA
:100D8000011122CE00102326A4FEFD573E85724499
:100D900005618280011106CE22CC00102326A4FE1C
:100DA0002545F93FAA873E85F2406244056182806D
:100DB000011122CE00102326A4FEFD573E85724469
:100DC00005618280011106CE22CC00102326A4FEEC
:100DD0002324B4FE2545E93FAA873E85F2406244BC
:100DE00005618280011122CE00102326A4FE8547D2
:100DF0003E85724405618280011122CE00102326B7
:100E0000A4FEFD573E85724405618280011106CE25
:100E100022CC00102326A4FE2324B4FE2322C4FEE9
:100E20002545D93FAA873E85F2406244056182800C
:100E3000797106D622D40018232EA4FC232CB4FCEE
:100E4000232AC4FC8327C4FD99C3FD5739A88327EF
:100E500084FD2326F4FE370501E0052DAA873E8791
:100E60008327C4FE2380E70085473E85B250225485
:100E700045618280011122CE00102326A4FE97F73F
:100E8000F11F9387271F98438327C4FE3E979387BC
:100E900001936360F70297F7F11F9387A71D9843AB
:100EA0008327C4FE3E979707F21F9387A75563F4E5
:100EB000E700FD5705A897F7F11F9387A71B9843F5
:100EC0008327C4FE3E9797F7F11F9387A71A98C30D
:100ED00097F7F11F9387071A98438327C4FEB30738
:100EE000F040BA973E85724405618280797106D6DA
:100EF00022D40018232EA4FC232CB4FC232AC4FCE7
:100F00000325C4FDEF20C066AA8799E3FD57B1A869
:100F1000832784FD2324F4FE232604FE3DA8032713
:100F200084FE8327C4FEBA9703C70700A947631648
:100F3000F700B545370501E0012B032784FE832721
:100F4000C4FEBA9783C70700BE85370501E0ED29C7
:100F50008327C4FE85072326F4FE0327C4FE8327C8
:100F600044FDE36EF7FA832744FD3E85B2502254D8
:100F700045618280000000000000000000000000C9
:100F80005D7106C012C216C41AC61EC82ACA2ECC6B
:100F900032CE36D03AD23ED442DC46DEF2C0F6C281
:100FA000FAC4FEC673D0E57E7350F67E73D0B67E6B
:100FB000732520348A85512FD2527390427CC252BD
:100FC00073901234B2527390223482401242A24281
:100FD0003243C2435245E245724682561257A257E7
:100FE0006258F258064E964E264FB64F6161730016
:100FF0002030000000000000000000005D7106C00D
:1010000012C216C41AC61EC82ACA2ECC32CE36D078
:101010003AD23ED442DC46DEF2C0F6C2FAC4FEC684
:1010200073D0E57E7350F67E73D0B67EF390D07E9B
:1010300073700430D2527390427CC2527390123457
:10104000B2527390223482401242A2423243C243CF
:101050005245E245724682561257A2576258F258DC
:10106000064E964E264FB64F61617300203001A0A8
:101070000000011106CE22CC0010AA87A307F4FEBF
:101080008347F4FEBE85370501E07D2E0100F24066
:10109000624405618280011106CE22CC0010232615
:1010A000A4FE8327C4FE93F7F70F3E85D9370100CE
:1010B000F240624405618280011106CE22CC00100C
:1010C0002326A4FE19A88327C4FE1387170023260E
:1010D000E4FE83C707003E85693F8327C4FE83C7BC
:1010E0000700F5F301000100F240624405618280CF
:1010F0005D7186C6A2C48008232EA4FA9307C4FC9F
:101100002326F4FE8327C4FB63D607041305D0020D
:1011100059378327C4FBB307F040232EF4FA1DA8E8
:101120000327C4FBA947B367F70213F7F70F832719
:10113000C4FE938617002326D4FE130707031377F4
:10114000F70F2380E7000327C4FBA947B347F70243
:10115000232EF4FA8327C4FBE1F79307C4FC03278B
:10116000C4FEE30FF7FA21A88327C4FEFD17232648
:10117000F4FE8327C4FE83C707003E85293F9307FB
:10118000C4FC0327C4FEE311F7FE01000100B640D2
:101190002644616182805D7106D622D40018232E18
:1011A000A4FC4CC010C454C418C85CC8232C04014F
:1011B000232E140193070402232CF4FC832784FDBF
:1011C00091172324F4FE232604FEC1A88327C4FE1E
:1011D0000327C4FDBA9703C70700930750026310A3
:1011E000F70A41A08327C4FE0327C4FDBA9703C7AB
:1011F000070093073006631CF700832784FE1387DC
:1012000047002324E4FE9C433E85713551A083278B
:10121000C4FE0327C4FDBA9703C70700930730072E
:10122000631CF700832784FE138747002324E4FE12
:101230009C433E855135A9A88327C4FE0327C4FDDE
:10124000BA9703C7070093074006631CF70083277C
:1012500084FE138747002324E4FE9C433E85493DDA
:1012600005A88327C4FE85072326F4FE8327C4FE32
:101270000327C4FDBA9783C70700ADF711A88327DA
:10128000C4FE0327C4FDBA9783C707003E852135F6
:101290008327C4FE85072326F4FE8327C4FE032785
:1012A000C4FDBA9783C7070095F301003E85B2508D
:1012B000225461618280011122CE00102326A4FEF7
:1012C0002324B4FE8327C4FE93B7170093F7F70FC8
:1012D00099C3FD5735A08327C4FE9847832784FE12
:1012E0005D8F8327C4FE98C78327C4FED843832716
:1012F00084FE93C7F7FF7D8F8327C4FED8C3814741
:101300003E85724405618280011122CE00102326A1
:10131000A4FE2324B4FE2322C4FE8327C4FE93B775
:10132000170093F7F70F99C3FD5715A8832744FEBD
:1013300099CB8327C4FED847832784FE5D8F8327FC
:10134000C4FED8C721A88327C4FED847832784FEBC
:1013500093C7F7FF7D8F8327C4FED8C781473E859B
:10136000724405618280011122CE00102326A4FE62
:101370002324B4FE2322C4FE8327C4FE93B71700A0
:1013800093F7F70F99C3FD57ADA097F7F11F938718
:10139000A7CE9843832784FE8607B357F7021387A7
:1013A000F7FF8327C4FE98CF8327C4FE9C4713E72B
:1013B00017008327C4FE98C78327C4FEDC4713E7C2
:1013C00017008327C4FED8C78327C4FE9C5313F796
:1013D000F7F88327C4FE98D38327C4FE9853832746
:1013E00044FE920793F707075D8F8327C4FE98D3C7
:1013F00081473E85724405618280011122CE001032
:101400002326A4FE2324B4FE8327C4FE93B717002B
:1014100093F7F70F99C3FD5725A08327C4FE9C4778
:1014200013F797FF8327C4FE98C78327C4FE984706
:10143000832784FE86075D8F8327C4FE98C7814774
:101440003E85724405618280011122CE0010232660
:10145000A4FEAE87A305F4FE8327C4FE93B717004E
:1014600093F7F70F99C3FD5729A801008327C4FEFE
:101470009C43E3CD07FE0347B4FE8327C4FE98C315
:1014800081473E85724405618280797122D60018B9
:10149000232EA4FC8327C4FD93B7170093F7F70FFF
:1014A00081C79307F00F31A88327C4FDDC432326AF
:1014B000F4FE8327C4FEE3C907FE8327C4FE93F727
:1014C000F70F3E85325445618280011122CE001013
:1014D0002326A4FE2324B4FE8327C4FE93B717005B
:1014E00093F7F70F99C3FD5725A0832784FE139721
:1014F0000701B7070700F98F2324F4FE8327C4FEF2
:10150000D847832784FE5D8F8327C4FED8C78147D1
:101510003E85724405618280011122CE001023268F
:10152000A4FE8327C4FE93B7170093F7F70F99C360
:10153000FD5711A88327C4FE9C4B13E72700832780
:10154000C4FE98CB81473E857244056182800111BB
:1015500022CE00102326A4FE8327C4FE93B71700D3
:1015600093F7F70F99C3FD5715A08327C4FE9C532B
:1015700013E787008327C4FE98D38327C4FE9C53B8
:1015800013F777FF8327C4FE98D381473E857244C3
:1015900005618280011122CE00102326A4FE83273C
:1015A000C4FE93B7170093F7F70F99C3FD5729A00F
:1015B0008327C4FEDC4B898B3E85724405618280A3
:1015C000397106DE22DC80002326A4FC8327C4FCBC
:1015D0003E838143B7877D01938707843387F30276
:1015E0008147B307F3023E97B7877D01938707844E
:1015F000B306F302B338F3023688B3071701BE8887
:101600001306803E81464285C685EF10302D2A871D
:10161000AE872324E4FE2326F4FEB70700D19843C7
:10162000DC432320E4FE2322F4FEB70700D103A805
:10163000070083A84700032504FE832544FE3306E4
:10164000A840B287B337F800B386B840B387F640F6
:10165000BE86232CC4FC232ED4FC0327C4FE832780
:10166000C4FDE3E4E7FC0327C4FE8327C4FD63183D
:10167000F700032784FE832784FDE3E8E7FA0100EF
:10168000F250625421618280411122C626C40008B2
:1016900097F7F11F9387479E37E7F5051307071064
:1016A00098C3854473A0A47CC16473A0A47C01008A
:1016B0003244A24441018280011106CE22CC0010A6
:1016C0002326A4FE2324B4FE8325C4FE17F5FFFFC2
:1016D000130545BAEF10F061F3271034BE808687FA
:1016E000BE8517F5FFFF1305E5B9EF109060F327EE
:1016F0003034BE808687BE8517F5FFFF130585B998
:10170000EF10305F01A0011122CE0010232604FE4D
:101710001DA017070000130767FA97F6F11F9386BD
:10172000E6988327C4FE8A07B69798C38327C4FE2A
:1017300085072326F4FE0327C4FEB147E3DBE7FC5D
:1017400001000100724405618280797106D622D4BD
:101750000018232EA4FC232CB4FC0327C4FD8567AA
:10176000FD17F98F2324F4FE032784FEAD4763EEB3
:10177000E70017F7F11F13076793832784FE8A0793
:10178000BA979C432326F4FE2DA0032784FE856789
:10179000FD17631AF70097F7F11F938727919C5B5A
:1017A0002326F4FE39A097070000938727F123260C
:1017B000F4FE8327C4FE81CB8327C4FE832584FDEA
:1017C0000325C4FD829781473E85B250225445616E
:1017D0008280797106D622D4001897F7FFFF93878D
:1017E000A7B28843CC439047D447984BDC4B232C7B
:1017F000A4FC232EB4FC2320C4FE2322D4FE2324E5
:10180000E4FE2326F4FE17F6FFFF1306A6A997F5BC
:10181000FFFF9385E5A917F5FFFF130525AAA53A54
:101820008327C4FEBE8517F5FFFF130525ABA53240
:1018300097F7F11F938747849C43BE8517F5FFFFF9
:10184000130505AB893A0100B250225445618280EC
:10185000011122CE0010A30504FEB70700D20347F2
:10186000B4FEA385E7000100B70700D2DC43D583AF
:10187000BD8B2326F4FEB70700D283C7070013F7FA
:10188000F70FB70700D2059B1377F70F2380E70008
:10189000B70700D283C7070093F7F70F13978701A5
:1018A00061878327C4FE93F7F70F860793F7F70F37
:1018B000E207E187F98BE207E187D98F1397870168
:1018C0006187B70700D21377F70F2380E700010085
:1018D00001007244056182801971A2DEA6DC00015C
:1018E0002326A4F82322C4F82320F4F8AE87A30506
:1018F000F4F8B6872305F4F8BA87A304F4F80327AD
:10190000C4F89307F00263ECE7000347B4F8854797
:1019100063E7E700032744F88D4763F4E700FD57CA
:101920006DA68347B4F80327C4F82326E4FA2324DA
:10193000F4FA370700D28327C4FA938707408A074F
:10194000BA9783C7270093F7F70FB70600D2F99B22
:1019500013F7F70F8327C4FA938707408A07B697D0
:101960002381E700370700D28327C4FA9387074013
:101970008A07BA9783C7270013F7F70F832784FADC
:1019800093F7F70FB70600D2D98F13F7F70F832716
:10199000C4FA938707408A07B6972381E7000100BE
:1019A0008327C4F8232AF4FA832744F82328F4FA77
:1019B000370700D2832744FB938707408A07BA97EB
:1019C00083C7270093F7F70FB70600D2E59B13F7FD
:1019D000F70F832744FB938707408A07B697238135
:1019E000E700370700D2832744FB938707408A0725
:1019F000BA9783C7270013F7F70F832704FB93F7E2
:101A0000F70F860793F7F70FB70600D2D98F13F7B2
:101A1000F70F832744FB938707408A07B6972381F4
:101A2000E70001008327C4F82328F4FC8347A4F8C7
:101A3000A307F4FCB70700D283C7070093F7F70F9B
:101A40008583BD8B2307F4FCB70700D2DC43D58325
:101A5000BD8BA306F4FC8347E4FCF1C70347E4FC19
:101A60008347D4FC63F6E7008347D4FC2307F4FCE8
:101A70008347E4FC0547B317F70093F7F70FFD170B
:101A80002306F4FC0347F4FC8347C4FC63F6E70039
:101A90008347C4FCA307F4FC0347F4FC8347E4FC3E
:101AA000A146B387F640B317F700A305F4FC8327DC
:101AB00004FD2322F4FC370700D2832744FC9387DC
:101AC00007408A07BA9783C7370093F7F70FA30138
:101AD000F4FC034734FC8347E4FCB317F700A3018D
:101AE000F4FC034734FC8347E4FCB357F740A301FD
:101AF000F4FC0347B4FC834734FCD98F93F7F70F0A
:101B0000032704FD232EE4FAA30DF4FA370700D2CD
:101B10008327C4FB938707408A07BA970347B4FB20
:101B2000A381E70011A001008327C4F82326F4FE57
:101B3000834794F8A305F4FEB70700D283C70700D4
:101B400093F7F70F8583BD8B2305F4FEB70700D20B
:101B5000DC43D583BD8BA304F4FE0347A4FE834777
:101B600094FE6376F70E034794FE8347A4FEB30703
:101B7000F7400547B317F70093F7F70FFD17230456
:101B8000F4FE0347B4FE834784FE63F6E700834711
:101B900084FEA305F4FE0347B4FE834794FEA146EA
:101BA000B387F640B317F700A305F4FE834794FE0E
:101BB0001307F00FB357F740A303F4FE0347B4FE37
:101BC000834774FED98FA305F4FE8327C4FE232028
:101BD000F4FE370700D2832704FE938707408A0765
:101BE000BA9783C7370093F7F70FA30FF4FC0347A7
:101BF000F4FD8347A4FEA146B387F640B357F740F0
:101C0000A30FF4FC0347F4FD8347A4FEA146B3876A
:101C1000F640B317F700A30FF4FC0347B4FE834765
:101C2000F4FDD98F93F7F70F0327C4FE232CE4FCB0
:101C3000A30BF4FC370700D2832784FD938707406A
:101C40008A07BA97034774FDA381E70001000100EA
:101C5000832704F89DCB832704F80327C4F82322A5
:101C6000E4FA2320F4FAF3277030BE84A687232CED
:101C7000F4F8832744FA8A073E87832784F9BA97C2
:101C80003E87832704FA1CC301008327C4F8232E50
:101C9000F4F8370700D28327C4F9938707408A07EF
:101CA000BA9783C7170093F7F70FB70600D293E7E9
:101CB000170013F7F70F8327C4F9938707408A07A4
:101CC000B697A380E700010081473E857654E6542D
:101CD00009618280411106C622C400080D46F167E1
:101CE00093850720370501E0EFF0EFE7DD34213C75
:101CF00085360100B240224441018280411122C652
:101D000000080100324441018280011106CE22CC3C
:101D10000010AA872E872324C4FE2322D4FEA30703
:101D2000F4FEBA872307F4FE0347E4FE8347F4FE7C
:101D3000BA853E85EF00F03C8347F4FE832584FEA0
:101D40003E85EF00F03F8347F4FE832544FE3E8549
:101D5000EF00504A8347F4FE85453E85EF00B034DE
:101D60000100F240624405618280011106CE22CC5E
:101D700000102326A4FE8326C4FEB7170300138693
:101D800007D4A545114551370100F2406244056171
:101D90008280411106C622C400088D679386E778C9
:101DA000B7170300138607D4A5451545B93F9567B6
:101DB000938607E2B1671386073585450145B1373C
:101DC0009567938607E2B167138607358545054514
:101DD0002D3F9567938607E2B167138607358545E2
:101DE000094525379567938607E2B167138607355E
:101DF00085450D45193F0100B240224441018280D2
:101E0000797122D60018AA87231FF4FC97E7F11FE7
:101E10009387472883C70700B9E70317E4FD9307B3
:101E2000C0026312F70497E7F11F9387A7260547BF
:101E30002380E70097E7F11F9387D72583C7070023
:101E4000138717009376F70F17E7F11F13079724EF
:101E50002300D7000357E4FD9386C1868607B69713
:101E60002390E70091A497E7F11F9387A72203C768
:101E7000070085476317F7040317E4FDC94763129A
:101E8000F70497E7F11F9387E72009472380E700CE
:101E900097E7F11F9387172083C707001387170061
:101EA0009376F70F17E7F11F1307D71E2300D7000C
:101EB0000357E4FD9386C1868607B6972390E70013
:101EC000E5A297E7F11F9387E71C03C7070089473F
:101ED0006311F71097E7F11F9387D71B83C707009C
:101EE000138717009376F70F17E7F11F1307971A59
:101EF0002300D7000357E4FD9386C1868607B69773
:101F00002390E70097E7F11F9387D71803C70700CF
:101F1000A54763E8E7000317E4FD9307B0056315E1
:101F2000F71897E7F11F9387E7160D472380E7001F
:101F300097E7F11F9387171683C70700ED171387DD
:101F4000C1868607BA9783D70700860713970701CC
:101F5000418397E7F11F938727142390E70097E7C2
:101F6000F11F9387371383C70700F1171387C186C3
:101F70008607BA9703D7070097E7F11F9387E71102
:101F80002390E70097E7F11F9387D71083C70700D7
:101F9000F5171387C1868607BA9703D7070097E717
:101FA000F11F9387A70F2390E70097E7F11F93870F
:101FB000770E83C70700F9171387C1868607BA977C
:101FC00003D7070097E7F11F9387670D2390E7007A
:101FD000E1A897E7F11F9387E70B03C707008D4739
:101FE0006312F70897E7F11F9387D70A83C70700A3
:101FF000FD171387C1868607BA9703D70700930793
:10200000B005631FF70097E7F11F9387B708238098
:10201000070097E7F11F9387E7072380070069A070
:1020200097E7F11F938707072380070097E7F11FC2
:102030009387570623800700A30704FE31A8834730
:10204000F4FE1387C1868607BA972390070083475B
:10205000F4FE8507A307F4FE0347F4FEA547E3F06B
:10206000E7FE99A097E7F11F9387C7022380070037
:1020700097E7F11F9387170223800700A30704FE49
:1020800031A88347F4FE1387C1868607BA97239049
:1020900007008347F4FE8507A307F4FE0347F4FE19
:1020A000A547E3F0E7FE09A00100325445618280B4
:1020B000797106D622D40018AA87231FF4FC83570F
:1020C000E4FD13072008B307F740C207C1832317B5
:1020D000F4FE8317E4FE63D607020317E4FEBA8713
:1020E0008A07BA978E073E878D679387E778BA97F6
:1020F000BE86B7170300138607D4A54515453131B1
:102100002DA00317E4FEBA878E07BA978A07338794
:10211000E7408D679387E778BA97BE86B7170300C5
:10212000138607D4A5451545CD360100B25022547B
:1021300045618280797122D60018232EA4FCA30762
:1021400004FE95AA8347F4FE8507A307F4FE8347A0
:10215000F4FE8507A307F4FE8347F4FE8507A30773
:10216000F4FE8347F4FE8507A307F4FE8347F4FEDD
:102170008507A307F4FE8347F4FE8507A307F4FE53
:102180008347F4FE8507A307F4FE8347F4FE850723
:10219000A307F4FE8347F4FE8507A307F4FE8347F5
:1021A000F4FE8507A307F4FE8347F4FE8507A30723
:1021B000F4FE8347F4FE8507A307F4FE8347F4FE8D
:1021C0008507A307F4FE8347F4FE8507A307F4FE03
:1021D0008347F4FE8507A307F4FE8347F4FE8507D3
:1021E000A307F4FE8347F4FE8507A307F4FE8347A5
:1021F000F4FE8507A307F4FE8347F4FE8507A307D3
:10220000F4FE8347F4FE8507A307F4FE8347F4FE3C
:102210008507A307F4FE8347F4FE8507A307F4FEB2
:102220008347F4FE8507A307F4FE8347F4FE850782
:10223000A307F4FE8347F4FE8507A307F4FE834754
:10224000F4FE8507A307F4FE8347F4FE8507A30782
:10225000F4FE8347F4FE8507A307F4FE8347F4FEEC
:102260008507A307F4FE8347F4FE8507A307F4FE62
:102270008347F4FE8507A307F4FE8347F4FE850732
:10228000A307F4FE8347F4FE8507A307F4FE834704
:10229000F4FE8507A307F4FE8347F4FE8507A30732
:1022A000F4FE8347F4FE8507A307F4FE8327C4FDED
:1022B000FD17232EF4FC8327C4FDE39507E80100F6
:1022C0000100325445618280797122D60018232E94
:1022D000A4FC232604FE25A0232404FE31A083278A
:1022E00084FE85072324F4FE032784FE93073038F9
:1022F000E3F7E7FE8327C4FE85072326F4FE0327C2
:10230000C4FE8327C4FDE369F7FC010001003254D9
:1023100045618280797106D622D40018AA87A30F5E
:10232000F4FC8347F4FD2307F4FEA30704FE41A059
:1023300097E7F11F938787D49C430146BE853705F5
:1023400002E0EFE07FFC8307E4FE63CE070097E73F
:10235000F11F9387A7D2DC430146BE85370502E013
:10236000EFE09FFA21A897E7F11F938727D1DC437D
:102370000546BE85370502E0EFE01FF98347E4FE1E
:1023800086072307F4FE0545753397E7F11F93870A
:10239000E7CE9C430546BE85370502E0EFE0DFF659
:1023A0000545493B8347F4FE8507A307F4FE034731
:1023B000F4FE9D47E3FEE7F697E7F11F938707CC0E
:1023C0009C430146BE85370502E0EFE0FFF305457B
:1023D000953397E7F11F938767CADC430546BE85AF
:1023E000370502E0EFE05FF20545A93397E7F11FFB
:1023F0009387C7C89C430546BE85370502E0EFE0DA
:10240000BFF00545053B97E7F11F938727C79C431E
:102410000146BE85370502E0EFE01FEF0545193B99
:102420000100B250225445618280411106C622C487
:10243000000897E7F11F938767C4DC430546BE8514
:10244000370502E0EFE05FEC0545ED3197E7F11F5E
:102450009387C7C29C430546BE85370502E0EFE07F
:10246000BFEA0545C13997E7F11F938727C1DC43D0
:102470000146BE85370502E0EFE01FE90D455D39F5
:1024800097E7F11F938787BF9C430146BE853705B9
:1024900002E0EFE07FE713058007AD3D0100B240A9
:1024A000224441018280411106C622C4000897E7F8
:1024B000F11F9387A7BCDC430146BE85370502E0C8
:1024C000EFE09FE40545BD3197E7F11F938707BB18
:1024D0009C430546BE85370502E0EFE0FFE20D456F
:1024E000913997E7F11F938767B9DC430546BE85AD
:1024F000370502E0EFE05FE10100B2402244410114
:102500008280011106CE22CC0010AA87A307F4FE18
:10251000293F014501358347F4FE3E85E53B6137A0
:102520000100F240624405618280011106CE22CC96
:102530000010AA87A307F4FECD3D13050004D93B84
:102540008347F4FE3E85F933B93F0100F24062440F
:1025500005618280011106CE22CC0010AA872E8749
:10256000A307F4FEBA872307F4FE8347E4FE9387AC
:1025700007FB93F7F70F3E8569378347F4FE918396
:1025800093F7F70F93E7070193F7F70F3E85953F12
:102590008307F4FEB98BE207E18793E71700E207B0
:1025A000E18793F7F70F3E85A93F0100F2406244AF
:1025B00005618280797106D622D40018AA87A30FFC
:1025C000F4FCA30704FE91A08347F4FE938707FB66
:1025D00093F7F70F3E8535370145253741451537C8
:1025E000230704FE11A88347F4FD3E853D3F834742
:1025F000E4FE85072307F4FE8307E4FEE3D507FE28
:102600008347F4FE8507A307F4FE0347F4FE9D47C6
:10261000E3FCE7FA01000100B250225445618280D8
:10262000411106C622C4000813054006713913057E
:10263000E00AC13D0145F1354145E135130500048E
:10264000C9351305000B753D130510085D3D1305D5
:10265000F00F453D1305100A6D351305600A553519
:102660001305800A793D1305F003613D1305800CC5
:10267000493D1305300D7135014561351305500D88
:10268000493513050008B53D1305800D9D3D1545E1
:102690008D3D1305900DB5351305100F9D351305B0
:1026A000A00D85354945B13D1305B00D993D130584
:1026B0000003813D1305D008A9355145993513050F
:1026C000F00A81350145353D0100B2402244410107
:1026D0008280797106D622D40018AA87232CC4FCE4
:1026E0003687A30FF4FCAE87230FF4FCBA87A30E42
:1026F000F4FCA30604FEA30704FE230704FE83479D
:10270000D4FD0547638DE70809476380E71879A280
:102710008347E4FE032784FDBA9783C70700811728
:10272000A306F4FE0347F4FD9307E00763F9E7000F
:10273000A30F04FC8347E4FD8507230FF4FC034744
:10274000E4FD8347F4FDBA853E852935A30704FEE1
:1027500005A80347D4FE8346F4FE17E6FFFF1306E1
:1027600026BCBA878607BA978607B297B69783C7FB
:1027700007003E855D3B8347F4FE8507A307F4FE13
:102780000347F4FE9547E3F6E7FC8347F4FD99071A
:10279000A30FF4FC8347E4FE85072307F4FE834779
:1027A000E4FE032784FDBA9783C70700B5F3FDA0B5
:1027B0008347E4FE032784FDBA9783C70700811788
:1027C000A306F4FE0347F4FD9307800763F9E700CF
:1027D000A30F04FC8347E4FD8507230FF4FC0347A4
:1027E000E4FD8347F4FDBA853E85AD33A30704FEBF
:1027F00035A08347D4FE139747008347F4FEBA976A
:1028000017E7FFFF130747D4BA9783C707003E8532
:10281000293B8347F4FE8507A307F4FE0347F4FE34
:102820009D47E3F8E7FC8347E4FD850713F7F70FBF
:102830008347F4FDBA853E85313BA30704FE3DA0E6
:102840008347D4FE139747008347F4FEBA97A10746
:1028500017E7FFFF130747CFBA9783C707003E85E7
:10286000E9318347F4FE8507A307F4FE0347F4FE2E
:102870009D47E3F7E7FC8347F4FDA107A30FF4FCB2
:102880008347E4FE85072307F4FE8347E4FE03271E
:1028900084FDBA9783C7070081FF01000100B25091
:1028A000225445618280011122CE0010AA872E8712
:1028B000A307F4FEBA872307F4FE8347E4FE99CF0B
:1028C000B707004098438347F4FE8546B397F60068
:1028D000BE86B7070040558F98C305A0B7070040D4
:1028E00098438347F4FE8546B397F60093C7F7FFF6
:1028F000BE86B7070040758F98C30100724405611A
:102900008280011122CE0010AA872E87A307F4FE31
:10291000BA872307F4FEB707004091079843834620
:10292000E4FE8347F4FE8A07B397F600BE86B70736
:1029300000409107558F98C3010072440561828061
:10294000011122CE0010AA872324B4FEA307F4FEAF
:102950008347F4FE1D47636AF7081397270097E73C
:10296000FFFF9387671DBA97984397E7FFFF938709
:10297000A71CBA978287B7070040A107032784FEE8
:1029800098C3ADA0B7070040B107032784FE98C3E2
:10299000B1A8B7070040C107032784FE98C3B9A0B8
:1029A000B7070040D107032784FE98C381A0B7076B
:1029B0000040E107032784FE98C30DA8B707004035
:1029C000F107032784FE98C315A0B707004093873B
:1029D0000702032784FE98C311A8B7070040938716
:1029E0004702032784FE98C311A00100010072442E
:1029F00005618280011122CE0010AA872324B4FE33
:102A0000A307F4FE8347F4FE1D476360F70A13979C
:102A1000270097E7FFFF93872714BA97984397E714
:102A2000FFFF93876713BA978287B70700409387A2
:102A30008702032784FE98C395A8B70700409387B1
:102A4000C702032784FE98C395A0B7070040938769
:102A50000703032784FE98C391A8B7070040938714
:102A60004703032784FE98C391A0B70700409387CC
:102A70008703032784FE98C315A8B70700409387F0
:102A8000C703032784FE98C315A0B70700409387A8
:102A90000704032784FE98C311A8B7070040938753
:102AA0004704032784FE98C311A00100010072446B
:102AB00005618280011106CE22CC0010232604FE7F
:102AC00099A017D7F11F1307E7538327C4FE8A077E
:102AD000BA979C43BE85370502E0EFE0CFFD17D7DC
:102AE000F11F130727528327C4FE8A07BA979C4316
:102AF0000546BE85370502E0EFE01F818327C4FE4F
:102B000085072326F4FE0327C4FE8947E3DBE7FAA3
:102B100001000100F240624405618280011106CE8D
:102B200022CC0010232604FE3DA8138701818327B1
:102B3000C4FE8A07BA979C43BE85370502E0EFE0E2
:102B40008FF7138701818327C4FE8A07BA979C43B6
:102B50000546BE85370502E0EFE00FFB8327C4FE84
:102B600085072326F4FE0327C4FE8547E3DFE7FA43
:102B700001000100F240624405618280411106C6F5
:102B800022C40008370501E0EFE0DFA02A8789476B
:102B9000631FF702370501E0EFE03F8FAA87139725
:102BA0000701418397D7F11F9387E74E2390E700F2
:102BB00097D7F11F9387274E83D70700C207C18796
:102BC0003E85EFF0EFA3370501E0EFE05F980100ED
:102BD000B240224441018280411106C622C400084D
:102BE0008D679386E778B7170300138607D4A5454A
:102BF0001545EFF08F91AD67938687FCB16713861B
:102C0000073585450145EFF04F909D679386075343
:102C1000B1671386073585450545EFF00F8F9D6732
:102C200093860753B1671386073585450945EFF04D
:102C3000CF8DAD67938687FCB167138607358545D1
:102C40000D45EFF08F8C85671385C7DAEFE05F974E
:102C50009567938617D4B7170300138607D4A54545
:102C60001545EFF08F8AAD67938687FCB1671386B1
:102C7000073585450145EFF04F899D6793860753DA
:102C8000B1671386073585450545EFF00F889567D1
:102C9000938607E2B1671386073585450945EFF04E
:102CA000CF86AD67938687FCB16713860735854568
:102CB0000D45EFF08F851305007DEFE07F908D6768
:102CC0009386E778B7170300138607D4A545154503
:102CD000EFF0AF839D6793860753B167138607357F
:102CE00085450145EFF06F82AD67938687FCB1673C
:102CF0001386073585450545EFF02F81AD6793862F
:102D000087FCB1671386073585450945EFE0FFFF6E
:102D10009D6793860753B1671386073585450D4533
:102D2000EFE0BFFE856713858738EFE07F89956701
:102D3000938617D4B7170300138607D4A545154506
:102D4000EFE0BFFCAD67938687FCB167138607355C
:102D500085450145EFE07FFB9D6793860753B1678B
:102D60001386073585450545EFE03FFA956793865D
:102D700007E2B1671386073585450945EFE0FFF89F
:102D8000AD67938687FCB1671386073585450D458A
:102D9000EFE0BFF71305007DEFE09F828D6793861C
:102DA000E778B7170300138607D4A5451545EFE06C
:102DB000DFF5AD67938687FCB167138607358545D8
:102DC0000145EFE09FF49D6793860753B167138633
:102DD000073585450545EFE05FF39D67938607530B
:102DE000B1671386073585450945EFE01FF2AD67EA
:102DF000938687FCB1671386073585450D45EFE05F
:102E0000DFF01305401FEFE0AFFB0100B2402244AA
:102E100041018280411106C622C40008EFE07FF71D
:102E20001305007DEFE0CFF991671385478AEFE046
:102E3000DFF31305007DEFE0AFF8AD67938687FC05
:102E4000B1671386073585450145EFE01FEC9D67A7
:102E500093860753B1671386073585450545EFE02F
:102E6000DFEA9D6793860753B1671386073585456B
:102E70000945EFE09FE9AD67938687FCB16713864C
:102E8000073585450D45EFE05FE80100B24022447B
:102E900041018280411106C622C400088D679386D5
:102EA000E778B7170300138607D4A5451545EFE06B
:102EB000DFE51305007DEFE0AFF0EFE09FED1305D8
:102EC000007DEFE0EFEF9567138507E2EFE0FFE9A4
:102ED00001A0011106CE22CC0010E93E8131A140B3
:102EE00073A00030010097070000938767C905476A
:102EF0008546014681454D45EFE01F9E0D46F16731
:102F000093850720370501E0EFE0EFC585453705DC
:102F100001E0EFE08FCE8145370501E0EFE0EFDA29
:102F2000370501E0EFE04FDF8567138587BBEFE0F2
:102F30002FE9AD67938687FCB16713860735854512
:102F40000145EFE09FDC9D6793860753B1671386C9
:102F5000073585450545EFE05FDB9D6793860753A1
:102F6000B1671386073585450945EFE01FDAAD6780
:102F7000938687FCB1671386073585450D45EFE0DD
:102F8000DFD89567938607E2B7170300138607D447
:102F9000A5451145EFE07FD78D679386E778B71792
:102FA0000300138607D4A5451545EFE01FD6EFF0C3
:102FB0002FE70145EFF00FE0A30704FE230704FE0F
:102FC000A30604FE13054006EFE08FDF8347E4FE0F
:102FD00085072307F4FE97D7F11F9387E70B83D765
:102FE00007003E8797D7F11F9387270B83D70700EA
:102FF000BE863A8697E5FFFF938505B8138501885D
:10300000352385461386018885450545EFF06FEC2D
:1030100097D7F11F9387870883D707003E8797D7F5
:10302000F11F9387C70783D70700BE863A8697E5C7
:10303000FFFF938525B513850188CD298546138625
:103040000188AD450545EFF0CFE897D7F11F93878D
:10305000A70483D707003E85EFF08F850347E4FE82
:103060009307700363F7E70297D7F11F938707036E
:1030700003D707009307200363FDE7008347D4FECF
:1030800089EB13052067EFE0AFD369338547A306CB
:10309000F4FE97D7F11F9387870003D70700A54752
:1030A000E3E2E7F297D7F11F938747FF03D70700C3
:1030B00093071003E3E8E7F08347F4FE81E7EFF0BE
:1030C000BFB109A80347F4FE85476314F700D9335D
:1030D00011A001008547A307F4FEEDB5AA88AE87CD
:1030E0003288368546836399062097E6FFFF9386EC
:1030F00026AA63F0C50C41676376E60A1307F00F52
:103100003337C7000E073355E600AA9683C606007C
:10311000130500023697B306E540630CE500B3974C
:10312000D70033D7E8003318D600B365F7003393E0
:10313000D80093580801B3D715031316080141822C
:1031400013570301B3F615033E85B305F602C20615
:10315000558F637CB70042971385F7FF63670701BC
:103160006375B7001385E7FF42970D8FB377170399
:1031700042031353030133571703C20733E36700B6
:10318000B306E6023A86637BD30042931306F7FF49
:10319000636603016374D3001306E7FF4205518D94
:1031A00081455DA8370500014147E36EA6F46147FC
:1031B00099BF01E605473358C7024167637FE808B6
:1031C0001307F00F6373070121453357A800BA9620
:1031D00003C70600130600022A97B306E6406315EC
:1031E000E608B3870741854593580801131608017F
:1031F000418213570301B3F61703B3D71703C2066F
:10320000558F330EF6023E85637CC70142971385C6
:10321000F7FF636707016375C7011385E7FF4297EF
:103220003307C741B37717034203135303013357DF
:103230001703C20733E36700B306E6023A86637BEF
:10324000D30042931306F7FF636603016374D30050
:103250001306E7FF4205518D828037070001414583
:10326000E365E8F6614595B73318D800B3D5E700B4
:103270003393D800B397D70033D7E80093580801A9
:103280003366F70033F7150393170801C18313550D
:103290000601B3D515034207498FB386B7022E85C1
:1032A000637CD70042971385F5FF63670701637559
:1032B000D7001385E5FF4297B306D74033F71603CF
:1032C00042064182B3D616034207B388D702B367DA
:1032D000C700368763FC1701C2971387F6FF63E7C1
:1032E000070163F517011387E6FFC29793150501E0
:1032F000B3871741D98DCDBD63E1D514416763FF15
:10330000E6021307F00FB335D7008E0533D5B600AC
:1033100017E7FFFF1307C7872A970347070013051F
:1033200000022E97B305E5406311E5020545E3E58C
:10333000F6F233B5C8001345150039BF3707000151
:10334000C145E3E5E6FCE145D1B73353E600B3966A
:10335000B6003363D30033D5E700935E0301B37641
:10336000D503B397B70033D7E8003368F700931756
:103370000301C183135708013316B6003355D50333
:10338000C206558F338FA7022A8E637CE7011A97F6
:10339000130EF5FF636767006375E701130EE5FF22
:1033A0001A973307E741B376D7033357D703C206DB
:1033B000B38EE70293170801C183D58F3A8563FC6A
:1033C000D7019A971305F7FF63E7670063F5D70105
:1033D0001305E7FF9A97420EB387D741C16E336555
:1033E000AE009386FEFF3373D50013580501F18EAE
:1033F0004182330ED302B306D80213570E013303B2
:10340000C30236931A973308C8026373D7007698BD
:1034100093560701369863E00703E39307D9C16722
:10342000FD177D8F4207337EFE00B398B800729778
:103430008145E3F3E8E27D15A5B38145014529BD4A
:10344000AA85814601460145CDAC41119717000080
:103450009387277E22C4171400001304847D1D8CDB
:1034600026C206C60984BE8419E42244B2409244AE
:1034700041016FE0BF887D1493172400A6979C43F9
:103480008297DDB74111971700009387877A22C48E
:10349000171400001304E4791D8C26C24AC006C626
:1034A000098481443E8963988402EFE0BF829717C4
:1034B00000009387077817140000130484771D8C8D
:1034C000098481443E89639F8400B240224492442F
:1034D00002494101828093972400CA979C43850446
:1034E0008297D1B793972400CA979C43850482970B
:1034F000D9BF5D7122D406D62A842EDA32DC36DEBC
:10350000BAC0BEC2C2C4C6C603A5818111C51C4DC6
:1035100081E72AC6192332450C455418228636CE37
:10352000EF10000EB25022546161828035713ECBA3
:10353000B707008093C7F7FF3ECE3EC8C17732C5BC
:1035400036C72AC42ACC9387872034012E8603A548
:1035500081812C0086DE3ECA3AC942CD46CF36C2B2
:10356000EF00D023A24723800700F6500D61828030
:103570006FD05F87011122CC26CA4AC806CE4EC63C
:10358000AA842E89328401C51C4D91E3792197D7F5
:10359000FFFF9387E7716319F406C0401C4C1CC4FD
:1035A0008357C400A18BC9C31C48BDCF1C48084029
:1035B0009379F90F1379F90F1D8D5C486346F50077
:1035C000A2852685352E2DE51C440505FD171CC456
:1035D0001C401387170018C0238037015C4863899B
:1035E000A7008357C400858B81CBA9476316F900D8
:1035F000A285268531260DEDF2406244D244B249BF
:103600004A8542490561828097D7FFFF9387476CBF
:103610006314F400804459B797D7FFFF9387476737
:10362000E31EF4F6C0449DBFA285268521203DDD22
:103630007D59D9B7411122C426C24AC006C683A407
:1036400081812A892E8489C49C4C99E32685F126A0
:1036500097D7FFFF9387C7656317F402C0408317AE
:10366000C4001397070193F687004183ADEA937670
:10367000070195EA25472320E90093E7070423166D
:10368000F4007D5571A897D7FFFF93876764631493
:10369000F4008044E9B797D7FFFF9387675FE31093
:1036A000F4FCC0446DBF118B0DC74C5889C99307FA
:1036B00044046384F5004A85B525232A0402835710
:1036C000C4002322040093F7B7FD2316F4001C481E
:1036D0001CC08357C40093E787002316F4001C48DE
:1036E00081EF8357C4001307002093F707286385F1
:1036F000E700A2854A85E5218317C40013970701D7
:1037000093F6170041839DC2544823240400B30656
:10371000D04014CC1448014581E61377070831FFE7
:10372000B2402244924402494101828093762700AC
:10373000014691E2504810C4F1BFAA8817D5F11F85
:10374000130505961C4191EF1387018A18C117D5FF
:10375000F1FF1305258BBA8709C51C412324F708FF
:10376000BA87D8437D487D556346E804638D0802D7
:1037700003A887086300080413152700429510C1A9
:103780000323081005463316E6003363C3002320E5
:1037900068102320D50889466397D80083264810EF
:1037A000558E2322C810930617000A07D4C3BA9770
:1037B0008CC70145828083D7C500011122CC26CA5F
:1037C00006CE4AC84EC613F78700AA842E8465E742
:1037D000D8416347E000B8416344E0000145C1A01F
:1037E00058546DDF03A904009396370123A0040009
:1037F00063DE060668488357C400918B99C75C4016
:103800001D8D5C5899C33C401D8D5C540C502A861C
:10381000814626858297FD570357C400631DF50036
:103820009440F54763E4D708B70740208507B3D72E
:10383000D700858BA5CF1C48232204001CC09317FA
:10384000370163D80700FD576314F5009C4091E3EE
:1038500068C84C5823A02401D1D193074404638441
:10386000F5002685C121232A04028DBF0C50854610
:10387000014626850297FD57E31FF5F69C40A5DF1C
:1038800075476385E70059476395E70023A0240146
:10389000B1B78357C40093E707042316F400F2403E
:1038A0006244D2444249B2490561828013670704E9
:1038B0002316E400EDB783A90501E38109F203A90A
:1038C00005008D8B23A0350133093941014791E370
:1038D000D84918C4E35420F11C540C50CA864E86B3
:1038E00026858297634AA0008357C4007D5593E7DD
:1038F00007042316F40065B7AA993309A940D9BF74
:103900009C49B9CF011122CC06CE2A8411C51C4D89
:1039100081E72EC61922B24597D7FFFF9387473913
:10392000639BF5004C408397C50095C72285624490
:10393000F240056149B597D7FFFF938767396394D4
:10394000F5000C44CDB797D7FFFF93876734E39C0E
:10395000F5FC4C44C9BFF2406244014505618280D8
:1039600001458280411122C406C62A842316B5006F
:103970002317C5002320050023220500232405006A
:103980002322050623280500232A0500232C0500F1
:10399000214681451305C505D52497170000938757
:1039A000A7F25CD097170000938707F51CD49717F0
:1039B0000000938747F95CD497170000938707FCB2
:1039C000B24000D01CD822444101828097050000FB
:1039D000938545F391A2411126C213068006938474
:1039E000F5FFB384C4024AC02E8922C406C693855B
:1039F0004407F12E2A8419C923200500232225011A
:103A0000310508C41386840681458D2CB240228579
:103A1000224492440249410182801C4DADE3411190
:103A200022C406C697070000938787FA1CD5232473
:103A30000504232605042328050483A7C1812A84BD
:103A40006314F50085471CCD22851D2848C02285BA
:103A5000052808C422852D2048C4484001469145C8
:103A6000113708440546A545F53D48440946C94572
:103A7000D53D8547B2401CCC2244410182808280E2
:103A8000411126C283A4C1819C4C4AC006C622C4EF
:103A90002A8999E326855137938484048044DC4045
:103AA000FD1763D607009C40B1CF8440C5BF031704
:103AB000C40031E7C17785072322040623200400D0
:103AC00023220400232404005CC423280400232AA6
:103AD0000400232C0400214681451305C405792ADE
:103AE000232A0402232C040223240404232604048E
:103AF000B24022852244924402494101828013044B
:103B0000840679BF91454A85F93588C02A8451FDDC
:103B1000B1472320F900E9BF797122D44AD04ECEB3
:103B200052CC5AC85EC606D626D256CA2A892E8AD2
:103B3000130485048149054BFD5B0444832A44003A
:103B4000FD1A63D00A0200406DF8B250225492541C
:103B50000259624AD24A424BB24B4E85F249456104
:103B6000828083D7C400637BFB008397E400638774
:103B70007701A6854A85029AB3E9A9009384840651
:103B8000C1B75971CAD02E898395E500A2D4A6D2B7
:103B900086D63284B68463DC05008357C90023A02F
:103BA000040093F7070895E3930700400DA0300049
:103BB000EF003062E34305FE3247BD67F98F797746
:103BC000BA9793B717009CC0C5B793070004B650C7
:103BD0001CC026549654065901456561828083D7DE
:103BE000C500011122CC06CE26CA4AC8898B2E8474
:103BF00089CF930774041CC01CC885475CC8F24079
:103C00006244D244424905618280740030002A89AE
:103C10008D3FA245AA844A855D2A01ED8317C40021
:103C200013F7072069FFF19B93E727002316F400A1
:103C3000C9B7970700009387A7D92324F9028357B0
:103C4000C40008C008C893E707082316F400A24779
:103C50005CC8B24791CF8315E4004A85EF00105A43
:103C600001C98357C400F19B93E717002316F400A2
:103C70000355C400C98C2316940051B73D432A87CD
:103C80006373C3029377F700BDEFADE5937606FF4C
:103C90003D8ABA960CC34CC30CC74CC74107E36BB3
:103CA000D7FE11E28280B306C3408A069702000065
:103CB00096966780A6002307B700A306B7002306E1
:103CC000B700A305B7002305B700A304B70023047A
:103CD000B700A303B7002303B700A302B700230272
:103CE000B700A301B7002301B700A300B70023006A
:103CF000B700828093F5F50F93968500D58D939646
:103D00000501D58D61B7939627009702000096961E
:103D10008682E78086FA9680C1171D8F3E96E374EF
:103D2000C3F8A5B7C5C583A7C5FF011122CC06CE30
:103D30001384C5FF63D307003E942AC6EF00D06406
:103D400017C7F11F130707361C4332453A8689EB24
:103D50002322040000C36244F24005616F00F06258
:103D6000637EF40014403307D4006396E700984361
:103D7000DC43369718C05CC000C2F1BF3E87DC430D
:103D800099C3E37DF4FE14433306D700631F860016
:103D90001040B29614C33306D700E39EC7FA90438F
:103DA000DC43B29614C35CC37DB76375C400B147EE
:103DB0001CC155B71040B306C4006396D7009443A6
:103DC000DC43B29614C05CC040C371B7828001115D
:103DD00026CA93843500F1984AC806CE22CC4EC636
:103DE000A104B1472A8963F9F404B14463E8B40437
:103DF0004A85EF00705997C7F11F9387A72A984308
:103E0000BE863A8439E417C4F11F1304E4291C4028
:103E100091E781454A85EF00702808C0A6854A854C
:103E2000EF00D027FD59631A3507B1472320F90069
:103E30004A85EF00905531A0E3DA04FAB147232018
:103E4000F9000145F2406244D2444249B249056159
:103E500082801C40858F63CF07022D466376F60073
:103E60001CC03E9404C029A05C40631387029CC21E
:103E70004A85EF0090511305B400930744006199FF
:103E80003307F540E300F5FC3A94898F1CC05DBF11
:103E90005CC3F9BF22874040B5B713043500719861
:103EA000E30285FCB305A4404A85EF00301FE31B05
:103EB00035FBA5BF01114AC803A9850022CC4EC617
:103EC00052C406CE26CA56C25AC02E84328AB68939
:103ED00063ED260983D7C50013F7074849C7044097
:103EE0008C4958482A8BB38AB4408D44B384E40289
:103EF0000947B3C4E40213871600569763F3E4003E
:103F0000BA8493F70740C9C3A6855A85C9352A895B
:103F10000DE5B1472320FB008357C4007D5593E78F
:103F200007042316F400F2406244D2444249B249E5
:103F3000224A924A024B056182800C485686EF0065
:103F4000D0328357C40093F7F7B793E707082316D7
:103F5000F4002328240144C85699B38454412320F3
:103F6000240104C44E8963F329014E8908404A861E
:103F7000D285EF00D03C1C4410400145B387274157
:103F80004A961CC410C045B726865A85EF001040DB
:103F90002A8961F10C485A857133A5BF83D7C500C2
:103FA000357122CD26CB4AC952C506CF4EC756C35E
:103FB0005AC1DEDEE2DCE6DA93F707082A8A2E89A8
:103FC000B2843684A1C39C4995EF93050004013562
:103FD0002320A9002328A90015E1B1472320FA00D6
:103FE0007D55FA406A44DA444A49BA492A4A9A4A0B
:103FF0000A4BF65B665CD65C0D6182809307000419
:10400000232AF90093070002A304F1029307000397
:1040100002D22305F10222C6930B500297DAFFFF6A
:10402000938A0ACD054C294B26848347040099C303
:10403000639C7709B30C9440630D9400E686268652
:10404000CA855285853DFD576304F51A9257E69758
:104050003ED283470400638D0718FD579304140074
:1040600002C802CE3ECA02CCA309010482D483C591
:10407000040015465685EF00B01DC2471384140096
:1040800031E513F7070109C713070002A309E1048B
:1040900013F7870009C71307B002A309E10483C619
:1040A00004001307A002638BE602F24726848146D0
:1040B00025460347040093051400130707FD6374A6
:1040C000E6068DC63ECE1DA0050485B733055541D5
:1040D0003315AC00C98F3EC8A28451BF3247930646
:1040E0004700184336C6634907023ACE0347040027
:1040F0009307E002631FF704034714009307A0022D
:10410000631BF702B2470904138747009C433AC672
:1041100063C107023ECA35A83307E04093E7270092
:104120003ACE3EC8E1B7B38767032E848546BA9777
:1041300049B7FD57C5B7050402CA814681472546E0
:104140000347040093051400130707FD6378E60690
:10415000F1F2834504000D4617D5FFFF1305C5B9DD
:10416000EF00100F11CD97D7FFFF9387E7B81D8D94
:1041700093070004B397A700424505045D8D2AC844
:1041800083450400194617D5FFFF130525B793048F
:1041900014002304B102EF00B00B25C597C7F1FF4F
:1041A000938747E695E74247B2471377071009CF51
:1041B00091073EC69257CE973ED2BDB5B3876703EF
:1041C0002E848546BA97ADBF9D07E19BA107D5B761
:1041D000780097060000938626CE4A860C08528502
:1041E00097000000E7000000FD57AA89E314F5FCE2
:1041F0008357C9007D5593F70704E39407DE1255F2
:10420000CDB3780097060000938606CB4A860C084B
:104210005285012AD1BF797152CC9C493A8A98457E
:1042200022D426D24ECE56CA06D64AD05AC85EC628
:10423000AA892E84B284B68A63D3E700BA879CC069
:104240000347340419C385079CC01C4093F7070239
:1042500081C79C4089079CC0032904001379690029
:10426000631A0900130B9401FD5B5C449840998F1D
:10427000634CF90483473404B336F0001C4093F7D1
:104280000702A5EB13063404D6854E85029AFD5726
:104290006303F5041C4011469840998B54448144B3
:1042A0006397C700B384E64063D3040081441C4491
:1042B00018486354F700998FBE94014969047D5BE7
:1042C00063982405014509A885465A86D6854E85FA
:1042D000029A631E75017D55B250225492540259C0
:1042E000F249624AD24A424BB24B4561828005098B
:1042F000ADBF3307D40013060003A301C70403476F
:10430000540493871600A2978906A381E7049DBFF2
:1043100085462286D6854E85029AE30E65FB050901
:1043200045B7797122D426D24AD04ECE06D652CC89
:1043300056CA5AC82E84B6899386350483C585012A
:1043400093078007AA84328963ECB700930720069D
:1043500063EDB7006386051C93078005638BF51238
:10436000930A24042301B40415A89387D5F993F77D
:10437000F70F5546E366F6FE17D6FFFF1306069BBA
:104380008A07B2979C43B29782871C43930A2404FE
:10439000938647009C4314C32301F404854765A218
:1043A0001C40084313F60708930545000DC21C4145
:1043B0000CC363D807001307D002B307F040A30172
:1043C000E40417D6FFFF1306E6932947A9A013F6C6
:1043D00007041C410CC371DEC207C187D9BF10405E
:1043E0001C4313780608138547006305080008C3BB
:1043F0009C4339A01376060408C37DDA83D70700EF
:104400001307F00617D6FFFF1306C68F6384E50E69
:104410002947A30104044C400CC463C505000840AF
:104420006D9908C099E3B68A99CDB68AB3F5E702CB
:10443000FD1AB29583C505002380BA00BE85B3D7A7
:10444000E702E3F5E5FEA147631EF7001C40858BFC
:1044500091CB58401C4863C7E70093070003A38F24
:10446000FAFEFD1AB386564114C84E87CA867000FC
:10447000A28526854D337D5A631B450D7D55B2506F
:10448000225492540259F249624AD24A424B45613F
:104490008280A302B40417D6FFFF1306A6860C4041
:1044A000084313F805081C411105630D080208C3F1
:1044B00013F7150001C793E505020CC04147B1FB96
:1044C0000C4093F5F5FD0CC0A9B71C4093E707021B
:1044D0001CC093078007A302F40417D6FFFF13063E
:1044E000A68375BF13F8050408C3E30308FCC207DD
:1044F000C1837DBF214731BF10401C434C48137816
:104500000608138547006306080008C39C438CC354
:1045100001A808C3137606049C4375DA2390B700FC
:1045200023280400B68A91B71C43504081459386E6
:10453000470014C383AA07005685192B01C533050C
:10454000554148C05C401CC8A301040439BF14484D
:104550005686CA8526858299E30245F31C40898BDD
:104560008DE7B2474844E35CF5F03E8509BF8546D8
:104570005686CA8526858299E30265F1050A5C4460
:104580003247998FE345FAFEE9BF014A930A940145
:104590007D5BF5B71C46FD171CC663DA0700184E95
:1045A00063C5E700A9476394F5006FE0BFFC1C42B8
:1045B0002E851387170018C22380B700828001114F
:1045C00022CC26CA4AC84EC652C406CE2A89AE8913
:1045D0003284B304D6007D5A63149400014509A8BF
:1045E000834504004E864A8575370504E31645FF6A
:1045F000F2406244D2444249B249224A0561828073
:10460000357122CD26CB4AC94EC706CF52C556C3F7
:104610005AC1DEDEE2DCE6DAAA89AE84328936846B
:1046200009C51C4D99E3EFF04FBF97C7FFFF938774
:104630002768639BF40C83A4490083D7C400A18B33
:10464000F5C79C48E5C793070002A304F10293074E
:10465000000302D22305F10222C6930B500297CA2F
:10466000FFFF938AEA68054C294B4A84834704007C
:1046700099C36390770FB30C2441630D2401E68640
:104680004A86A6854E85253FFD576306F51E92573F
:10469000E6973ED283470400638F071CFD5713093A
:1046A000140002C802CE3ECA02CCA309010482D47F
:1046B0008345090015465685612EC247130419002B
:1046C00059E913F7070109C713070002A309E10419
:1046D00013F7870009C71307B002A309E104834653
:1046E00009001307A0026380E608F2474A84814666
:1046F00025460347040093051400130707FD63795B
:10470000E60AB5CA3ECE85A897C7FFFF9387475CE8
:104710006395F40083A489000DB797C7FFFF9387C3
:104720002757E39CF4F083A4C90001BFA6854E85FA
:10473000EFE05FF009D97D55FA406A44DA444A490E
:10474000BA492A4A9A4A0A4BF65B665CD65C0D6106
:104750008280050421BF330555413315AC00C98F54
:104760003EC82289B1B7324793064700184336C680
:10477000634907023ACE034704009307E002631F30
:10478000F704034714009307A002631BF702B24724
:104790000904138747009C433AC663C107023ECA17
:1047A00035A83307E04093E727003ACE3EC8E1B78B
:1047B000B38767032E848546BA9725BFFD57C5B7D3
:1047C000050402CA81468147254603470400930534
:1047D0001400130707FD6376E606F1F28345040033
:1047E0000D4617C5FFFF130525519D2411CD97C711
:1047F000FFFF938767501D8D93070004B397A700B1
:10480000424505045D8D2AC883450400194617C535
:10481000FFFF1305A54E130914002304B1020D2C4C
:104820003DC197B7F1FF9387E77D95E74247B247D0
:104830001377071009CF91073EC69257D2973ED201
:104840002DB5B38767032E848546BA97BDBF9D07F4
:10485000E19BA107D5B7780097060000938666D63E
:1048600026860C084E8597000000E7000000FD57E3
:104870002A8AE314F5FC83D7C40093F70704E39C6A
:1048800007EA125555BD780097060000938666D357
:1048900026860C084E85EFF0DFA8D1BF411122C457
:1048A0002A842E8523A6019206C6EFC0AFDCFD57F1
:1048B0006316F50083A7C19291C31CC0B240224485
:1048C00041018280411122C42E848395E50006C6F1
:1048D000392E634905007C48AA977CC8B24022441F
:1048E000410182808357C4007D777D17F98F23169D
:1048F000F400EDB783D7C500011122CC26CA4AC8FF
:104900004EC606CE93F70710AA842E843289B68944
:1049100091C78395E5008946014629228357C40043
:104920007D777D17F98F8315E4002316F400624428
:10493000F240CE864A86B24942492685D244056174
:104940003DA8411122C42E848395E50006C6D928CE
:10495000FD570357C400631BF500FD77FD17F98F62
:104960002316F400B2402244410182808567D98F2A
:104970002316F40068C8FDB78395E5003DA04111FA
:1049800022C42A842E85B285368623A6019206C6C5
:10499000EFC0CFD5FD576316F50083A7C19291C331
:1049A0001CC0B240224441018280411122C42A84A9
:1049B0002E8523A6019206C6EFC0CFBDFD57631614
:1049C000F50083A7C19291C31CC0B24022444101AB
:1049D0008280411122C42A842E85B28523A60192A9
:1049E00006C6EFC02FBEFD576316F50083A7C19220
:1049F00091C31CC0B240224441018280411122C4B3
:104A00002A842E8523A6019206C6EFC0AFBDFD57AE
:104A10006316F50083A7C19291C31CC0B240224423
:104A200041018280411122C42A842E85B2853686B6
:104A300023A6019206C6EFC06FBDFD576316F500B1
:104A400083A7C19291C31CC0B2402244410182801D
:104A500093F5F50F2A966314C500014582808347BC
:104A60000500E38DB7FE0505FDB7B3C7A5008D8B27
:104A7000B306C50081E78D4763EEC700AA87637858
:104A8000D50A03C7050085078505A38FE7FEE3EA7E
:104A9000D7FE828013773500AA8711CB03C70500A4
:104AA00085078505A38FE7FE13F73700FDB713F7DA
:104AB000C6FF130607FE63FBC70483A3050083A29A
:104AC000450083AF850003AFC50083AE050103AE8B
:104AD000450103A3850183A8C50123A0770023A274
:104AE000570003A8050223A4F70123A6E70123A882
:104AF000D70123AAC70123AC670023AE1701938512
:104B000045029387470223AE07FF75B72E883E867E
:104B10006360E6021388D7FF0146636607010D074D
:104B20001D8F1376C7FFB297B295E3ECD7F482805E
:104B30008328080011061108232E16FFD1BF63F346
:104B4000A504B386C500637FD5029345F6FF814770
:104B5000FD176393F50082803387F6000348070052
:104B60003307F6002A9723000701DDB73387F500E6
:104B7000834607003307F50085072300D700E317B6
:104B8000F6FE82808147E5BF82808280011122CCBF
:104B900006CE26CA4AC84EC6328491E96244F24023
:104BA000D2444249B249B28505616FF04FA201EE8D
:104BB000EFF04F978144F24062444249B249268562
:104BC000D244056182802E89AA898128CA84E3742F
:104BD00085FEA2854E85EFF08F9FAA8469DDCA8588
:104BE00022866135CA854E85EFF0CF93E9B7411132
:104BF00022C42A842E85B285368623A6019206C653
:104C0000EFC00FA3FD576316F50083A7C19291C3B0
:104C10001CC0B24022444101828083A7C5FF138596
:0E4C2000C7FF63D50700AA959C413E95828090
:104C3000010000000200000004000000000000006D
:104C4000AC0C0E00CC0C0E008C0C0E000000000012
:104C50000000000000000000000000000000000054
:104C60000000000000000000000000000000000044
:104C70000000000000000000000000000000000034
:104C80000000000000000000000000000000000024
:104C90000000000000000000000000000000000014
:104CA000A001002000E1F5054000000080000000A8
:104CB00040000000800000000C0000200C000020DC
:04000003E00000BC5D
:00000001FF
